{
  "contractName": "voteContract",
  "abi": [
    {
      "inputs": [],
      "payable": false,
      "stateMutability": "nonpayable",
      "type": "constructor"
    },
    {
      "constant": false,
      "inputs": [],
      "name": "userDidVote",
      "outputs": [
        {
          "internalType": "bool",
          "name": "",
          "type": "bool"
        }
      ],
      "payable": false,
      "stateMutability": "nonpayable",
      "type": "function"
    },
    {
      "constant": false,
      "inputs": [],
      "name": "setBoolDidVoteToTrue",
      "outputs": [],
      "payable": false,
      "stateMutability": "nonpayable",
      "type": "function"
    },
    {
      "constant": false,
      "inputs": [],
      "name": "vote",
      "outputs": [],
      "payable": false,
      "stateMutability": "nonpayable",
      "type": "function"
    }
  ],
  "bytecode": "0x608060405234801561001057600080fd5b5033600360006101000a81548173ffffffffffffffffffffffffffffffffffffffff021916908373ffffffffffffffffffffffffffffffffffffffff16021790555061020f806100616000396000f3fe608060405234801561001057600080fd5b50600436106100415760003560e01c80634cce083d14610046578063632a9a5214610050578063961a123d1461005a575b600080fd5b61004e61007c565b005b6100586100d8565b005b610062610182565b604051808215151515815260200191505060405180910390f35b60018060003373ffffffffffffffffffffffffffffffffffffffff1673ffffffffffffffffffffffffffffffffffffffff16815260200190815260200160002060000160146101000a81548160ff021916908315150217905550565b600015156100e4610182565b151514156101805760006105dc90505b60001515600160003373ffffffffffffffffffffffffffffffffffffffff1673ffffffffffffffffffffffffffffffffffffffff16815260200190815260200160002060000160149054906101000a900460ff16151514801561015957506000600454115b1561017e5761016661007c565b600460008154809291906001900391905055506100f4565b505b565b6000600160003373ffffffffffffffffffffffffffffffffffffffff1673ffffffffffffffffffffffffffffffffffffffff16815260200190815260200160002060000160149054906101000a900460ff161590509056fea265627a7a723158202d0103a565b63def067f617f93f72daea5f6f0c1ff1375674cfb30fff563c3c064736f6c634300050c0032",
  "source": "pragma solidity >=0.4.22 <0.6.0;\r\ncontract voteContract {\r\n\r\n    uint weight;\r\n    mapping(address => didVote) voters;\r\n    mapping(address => candidat) candidats;\r\n    address owner;\r\n    uint attempts;\r\n    \r\n    struct didVote{\r\n        address user;\r\n        bool didVote;\r\n    }\r\n    \r\n    struct candidat {\r\n        string name;\r\n        uint voteCount;\r\n    }\r\n    \r\n    struct Candidate {\r\n        uint id;\r\n        string name;\r\n        uint score;\r\n    }\r\n    \r\n    constructor() public {\r\n        owner = msg.sender;\r\n    }\r\n    \r\n    function userDidVote()public returns(bool){\r\n        return !voters[msg.sender].didVote;\r\n    }\r\n    \r\n    function setBoolDidVoteToTrue()public{\r\n        voters[msg.sender].didVote=true;\r\n    }\r\n    \r\n    function vote() public{\r\n        //can vote ?\r\n        if(userDidVote() == false){\r\n        //get score\r\n            uint score = 1500; //a gerer apr�s\r\n        //get number attemps possible\r\n        //get vote val max\r\n        //enougth attemps\r\n        //start algo\r\n        while(voters[msg.sender].didVote==false && attempts>0){\r\n            \r\n        //accept?\r\n            // manageVote (attempts)\r\n            // setBoolDidVoteToTrue\r\n            setBoolDidVoteToTrue();\r\n        //refuse?\r\n            //attemps --\r\n            attempts --;\r\n            //redo\r\n        }\r\n        }\r\n        \r\n    }\r\n    \r\n    \r\n}",
  "sourcePath": "C:/Users/kIRETA/Desktop/esgis2/crypto/truffle/contracts/voteContract.sol",
  "compiler": {
    "name": "solc",
    "version": "0.5.12+commit.7709ece9.Emscripten.clang"
  },
  "schemaVersion": "3.0.19",
  "updatedAt": "2019-12-03T10:49:06.491Z",
  "networkType": "ethereum",
  "devdoc": {
    "methods": {}
  },
  "userdoc": {
    "methods": {}
  }
}