{
  "contractName": "voteContract",
  "abi": [
    {
      "inputs": [],
      "payable": false,
      "stateMutability": "nonpayable",
      "type": "constructor"
    },
    {
      "constant": false,
      "inputs": [],
      "name": "userDidVote",
      "outputs": [
        {
          "internalType": "bool",
          "name": "",
          "type": "bool"
        }
      ],
      "payable": false,
      "stateMutability": "nonpayable",
      "type": "function"
    },
    {
      "constant": false,
      "inputs": [],
      "name": "setBoolDidVoteToTrue",
      "outputs": [],
      "payable": false,
      "stateMutability": "nonpayable",
      "type": "function"
    },
    {
      "constant": false,
      "inputs": [],
      "name": "vote",
      "outputs": [],
      "payable": false,
      "stateMutability": "nonpayable",
      "type": "function"
    },
    {
      "constant": false,
      "inputs": [
        {
          "internalType": "uint256",
          "name": "slot",
          "type": "uint256"
        },
        {
          "internalType": "uint256",
          "name": "max",
          "type": "uint256"
        }
      ],
      "name": "shuffle",
      "outputs": [
        {
          "internalType": "uint256",
          "name": "",
          "type": "uint256"
        }
      ],
      "payable": false,
      "stateMutability": "nonpayable",
      "type": "function"
    }
  ],
  "bytecode": "0x608060405234801561001057600080fd5b5033600360006101000a81548173ffffffffffffffffffffffffffffffffffffffff021916908373ffffffffffffffffffffffffffffffffffffffff1602179055506102ef806100616000396000f3fe608060405234801561001057600080fd5b506004361061004c5760003560e01c806329fa6d02146100515780634cce083d1461009d578063632a9a52146100a7578063961a123d146100b1575b600080fd5b6100876004803603604081101561006757600080fd5b8101908080359060200190929190803590602001909291905050506100d3565b6040518082815260200191505060405180910390f35b6100a561015c565b005b6100af6101b8565b005b6100b9610262565b604051808215151515815260200191505060405180910390f35b600080600b90505b6000811315610152576000600282816100f057fe5b07141561010b576002428161010157fe5b068401935061011b565b6002428161011557fe5b06840393505b808060019003915050600084141561013a57838060010194505061014d565b8284141561014c578380600190039450505b5b6100db565b8391505092915050565b60018060003373ffffffffffffffffffffffffffffffffffffffff1673ffffffffffffffffffffffffffffffffffffffff16815260200190815260200160002060000160146101000a81548160ff021916908315150217905550565b600015156101c4610262565b151514156102605760006105dc90505b60001515600160003373ffffffffffffffffffffffffffffffffffffffff1673ffffffffffffffffffffffffffffffffffffffff16815260200190815260200160002060000160149054906101000a900460ff16151514801561023957506000600454115b1561025e5761024661015c565b600460008154809291906001900391905055506101d4565b505b565b6000600160003373ffffffffffffffffffffffffffffffffffffffff1673ffffffffffffffffffffffffffffffffffffffff16815260200190815260200160002060000160149054906101000a900460ff161590509056fea265627a7a72315820efc57b81b8bc7a030dfe6b262de57513f7b683fdc83a6d260813dccb49794a8564736f6c634300050c0032",
  "source": "pragma solidity >=0.4.22 <0.6.0;\r\ncontract voteContract {\r\n\r\n    uint weight;\r\n    mapping(address => didVote) voters;\r\n    mapping(address => candidat) candidats;\r\n    address owner;\r\n    uint attempts;\r\n    \r\n    struct didVote{\r\n        address user;\r\n        bool didVote;\r\n    }\r\n    \r\n    struct candidat {\r\n        string name;\r\n        uint voteCount;\r\n    }\r\n    \r\n    struct Candidate {\r\n        uint id;\r\n        string name;\r\n        uint score;\r\n    }\r\n    \r\n    constructor() public {\r\n        owner = msg.sender;\r\n    }\r\n    \r\n    function userDidVote()public returns(bool){\r\n        return !voters[msg.sender].didVote;\r\n    }\r\n    \r\n    function setBoolDidVoteToTrue()public{\r\n        voters[msg.sender].didVote=true;\r\n    }\r\n    \r\n    function vote() public{\r\n        //can vote ?\r\n        if(userDidVote() == false){\r\n        //get score\r\n            uint score = 1500; //a gerer apr?s\r\n        //get number attemps possible\r\n        //get vote val max\r\n        //enougth attemps\r\n        //start algo\r\n            while(voters[msg.sender].didVote==false && attempts>0){\r\n                \r\n            //accept?\r\n                // manageVote (attempts)\r\n                // setBoolDidVoteToTrue\r\n                setBoolDidVoteToTrue();\r\n            //refuse?\r\n                //attemps --\r\n                attempts --;\r\n                //redo\r\n            }\r\n        }\r\n    }\r\n\r\n    /** \r\n    * slot : chosen candidate's number\r\n    * max : the maximum slots + 1\r\n    *\r\n    * returns the new chosen candidate\r\n    **/\r\n    function shuffle (uint slot, uint max) public returns(uint256) {\r\n        \r\n        int height = 11;\r\n        \r\n        while (height > 0) {\r\n            if (height % 2 == 0) {  // �tage interm�diaire \r\n                slot += now % 2;\r\n            } else {    // �tage de d�part / arriv�e \r\n                slot -= now % 2;\r\n            }\r\n            height --;\r\n            \r\n            if(slot == 0) { // if the ball got out of bounds\r\n                slot++;\r\n            } else if(slot == max) {\r\n                slot--;\r\n            }\r\n        }\r\n        \r\n        return slot;\r\n    }\r\n}",
  "sourcePath": "C:/Users/kIRETA/Desktop/esgis2/crypto/truffle/contracts/voteContract.sol",
  "compiler": {
    "name": "solc",
    "version": "0.5.12+commit.7709ece9.Emscripten.clang"
  },
  "schemaVersion": "3.0.19",
  "updatedAt": "2019-12-04T16:43:08.645Z",
  "networkType": "ethereum",
  "devdoc": {
    "methods": {}
  },
  "userdoc": {
    "methods": {
      "shuffle(uint256,uint256)": {
        "notice": "slot : chosen candidate's number max : the maximum slots + 1     * returns the new chosen candidate*"
      }
    }
  }
}